{
  "contractName": "Reserve",
  "abi": [
    {
      "inputs": [],
      "stateMutability": "nonpayable",
      "type": "constructor"
    },
    {
      "anonymous": false,
      "inputs": [
        {
          "indexed": false,
          "internalType": "uint256",
          "name": "wETHAmount",
          "type": "uint256"
        }
      ],
      "name": "CurrentBalance",
      "type": "event"
    },
    {
      "inputs": [],
      "name": "_uniswapRouter",
      "outputs": [
        {
          "internalType": "contract ISwapRouter",
          "name": "",
          "type": "address"
        }
      ],
      "stateMutability": "view",
      "type": "function",
      "constant": true
    },
    {
      "inputs": [
        {
          "internalType": "int256",
          "name": "delta",
          "type": "int256"
        }
      ],
      "name": "rebalance",
      "outputs": [],
      "stateMutability": "nonpayable",
      "type": "function"
    },
    {
      "inputs": [
        {
          "internalType": "uint256",
          "name": "amountOptions",
          "type": "uint256"
        },
        {
          "internalType": "int256",
          "name": "delta",
          "type": "int256"
        }
      ],
      "name": "buyOptions",
      "outputs": [],
      "stateMutability": "payable",
      "type": "function",
      "payable": true
    },
    {
      "inputs": [],
      "name": "injectETHToContract",
      "outputs": [],
      "stateMutability": "payable",
      "type": "function",
      "payable": true
    },
    {
      "inputs": [
        {
          "internalType": "uint256",
          "name": "inAmount",
          "type": "uint256"
        },
        {
          "internalType": "uint256",
          "name": "out",
          "type": "uint256"
        }
      ],
      "name": "convertWEthToUSDC",
      "outputs": [],
      "stateMutability": "nonpayable",
      "type": "function"
    },
    {
      "inputs": [],
      "name": "getUSDCBalance",
      "outputs": [
        {
          "internalType": "uint256",
          "name": "",
          "type": "uint256"
        }
      ],
      "stateMutability": "view",
      "type": "function",
      "constant": true
    },
    {
      "inputs": [],
      "name": "getWETHBalance",
      "outputs": [
        {
          "internalType": "uint256",
          "name": "",
          "type": "uint256"
        }
      ],
      "stateMutability": "view",
      "type": "function",
      "constant": true
    },
    {
      "inputs": [
        {
          "internalType": "uint256",
          "name": "inAmount",
          "type": "uint256"
        },
        {
          "internalType": "uint256",
          "name": "out",
          "type": "uint256"
        }
      ],
      "name": "convertUSDCToWETH",
      "outputs": [],
      "stateMutability": "nonpayable",
      "type": "function"
    }
  ],
  "bytecode": "0x60a06040527fffffffffffffffffffffffffffffffffffffffffffffffffffffffffffffffff6000553480156200003557600080fd5b5073e592427a0aece92de3edee1f18e0157c0586156473ffffffffffffffffffffffffffffffffffffffff1660808173ffffffffffffffffffffffffffffffffffffffff1660601b8152505073c02aaa39b223fe8d0a0e5c4f27ead9083c756cc273ffffffffffffffffffffffffffffffffffffffff1663095ea7b373e592427a0aece92de3edee1f18e0157c058615646000546040518363ffffffff1660e01b8152600401620000e892919062000268565b602060405180830381600087803b1580156200010357600080fd5b505af115801562000118573d6000803e3d6000fd5b505050506040513d601f19601f820116820180604052508101906200013e91906200021a565b5073a0b86991c6218b36c1d19d4a2e9eb0ce3606eb4873ffffffffffffffffffffffffffffffffffffffff1663095ea7b373e592427a0aece92de3edee1f18e0157c058615646000546040518363ffffffff1660e01b8152600401620001a692919062000268565b602060405180830381600087803b158015620001c157600080fd5b505af1158015620001d6573d6000803e3d6000fd5b505050506040513d601f19601f82011682018060405250810190620001fc91906200021a565b50620002f9565b6000815190506200021481620002df565b92915050565b6000602082840312156200022d57600080fd5b60006200023d8482850162000203565b91505092915050565b620002518162000295565b82525050565b6200026281620002d5565b82525050565b60006040820190506200027f600083018562000246565b6200028e602083018462000257565b9392505050565b6000620002a282620002b5565b9050919050565b60008115159050919050565b600073ffffffffffffffffffffffffffffffffffffffff82169050919050565b6000819050919050565b620002ea81620002a9565b8114620002f657600080fd5b50565b60805160601c610d3062000321600039806103ca528061070a52806108635250610d306000f3fe60806040526004361061007a5760003560e01c8063bb2f6b1a1161004e578063bb2f6b1a14610129578063c96501d314610152578063da7a67db1461015c578063eae3aa2b146101785761007a565b8062cbb73b1461007f57806329249fca146100aa5780633cfd1ccc146100d357806365b61b77146100fe575b600080fd5b34801561008b57600080fd5b506100946101a1565b6040516100a19190610c38565b60405180910390f35b3480156100b657600080fd5b506100d160048036038101906100cc9190610953565b610245565b005b3480156100df57600080fd5b506100e8610324565b6040516100f59190610c38565b60405180910390f35b34801561010a57600080fd5b506101136103c8565b6040516101209190610be5565b60405180910390f35b34801561013557600080fd5b50610150600480360381019061014b91906109e1565b6103ec565b005b61015a610424565b005b610176600480360381019061017191906109a5565b61056e565b005b34801561018457600080fd5b5061019f600480360381019061019a91906109e1565b61057d565b005b600073c02aaa39b223fe8d0a0e5c4f27ead9083c756cc273ffffffffffffffffffffffffffffffffffffffff166370a08231306040518263ffffffff1660e01b81526004016101f09190610bca565b60206040518083038186803b15801561020857600080fd5b505afa15801561021c573d6000803e3d6000fd5b505050506040513d601f19601f82011682018060405250810190610240919061097c565b905090565b61024e816105b5565b7fccd63b477c883a586271d6c5e65e8a82327bddc52ed1908a1078708f8c5c101a73c02aaa39b223fe8d0a0e5c4f27ead9083c756cc273ffffffffffffffffffffffffffffffffffffffff166370a08231306040518263ffffffff1660e01b81526004016102bc9190610bca565b60206040518083038186803b1580156102d457600080fd5b505afa1580156102e8573d6000803e3d6000fd5b505050506040513d601f19601f8201168201806040525081019061030c919061097c565b6040516103199190610c38565b60405180910390a150565b600073a0b86991c6218b36c1d19d4a2e9eb0ce3606eb4873ffffffffffffffffffffffffffffffffffffffff166370a08231306040518263ffffffff1660e01b81526004016103739190610bca565b60206040518083038186803b15801561038b57600080fd5b505afa15801561039f573d6000803e3d6000fd5b505050506040513d601f19601f820116820180604052508101906103c3919061097c565b905090565b7f000000000000000000000000000000000000000000000000000000000000000081565b61042073a0b86991c6218b36c1d19d4a2e9eb0ce3606eb488373c02aaa39b223fe8d0a0e5c4f27ead9083c756cc284610662565b5050565b73c02aaa39b223fe8d0a0e5c4f27ead9083c756cc273ffffffffffffffffffffffffffffffffffffffff1663d0e30db0346040518263ffffffff1660e01b81526004016000604051808303818588803b15801561048057600080fd5b505af1158015610494573d6000803e3d6000fd5b50505050507fccd63b477c883a586271d6c5e65e8a82327bddc52ed1908a1078708f8c5c101a73c02aaa39b223fe8d0a0e5c4f27ead9083c756cc273ffffffffffffffffffffffffffffffffffffffff166370a08231306040518263ffffffff1660e01b81526004016105079190610bca565b60206040518083038186803b15801561051f57600080fd5b505afa158015610533573d6000803e3d6000fd5b505050506040513d601f19601f82011682018060405250810190610557919061097c565b6040516105649190610c38565b60405180910390a1565b6105798183026105b5565b5050565b6105b173c02aaa39b223fe8d0a0e5c4f27ead9083c756cc28373a0b86991c6218b36c1d19d4a2e9eb0ce3606eb48846107bb565b5050565b60008114156105c35761065f565b60008082126105d257816105d7565b816000035b9050600082131561061d5761061873a0b86991c6218b36c1d19d4a2e9eb0ce3606eb4860005473c02aaa39b223fe8d0a0e5c4f27ead9083c756cc284610662565b61065d565b600082121561065c5761065b73c02aaa39b223fe8d0a0e5c4f27ead9083c756cc28273a0b86991c6218b36c1d19d4a2e9eb0ce3606eb4860006107bb565b5b5b505b50565b60006040518061010001604052808673ffffffffffffffffffffffffffffffffffffffff1681526020018473ffffffffffffffffffffffffffffffffffffffff168152602001610bb862ffffff1681526020013073ffffffffffffffffffffffffffffffffffffffff168152602001603c62ffffff1642018152602001838152602001858152602001600073ffffffffffffffffffffffffffffffffffffffff1681525090507f000000000000000000000000000000000000000000000000000000000000000073ffffffffffffffffffffffffffffffffffffffff1663db3e2198826040518263ffffffff1660e01b81526004016107619190610c1c565b602060405180830381600087803b15801561077b57600080fd5b505af115801561078f573d6000803e3d6000fd5b505050506040513d601f19601f820116820180604052508101906107b3919061097c565b505050505050565b60006040518061010001604052808673ffffffffffffffffffffffffffffffffffffffff1681526020018473ffffffffffffffffffffffffffffffffffffffff168152602001610bb862ffffff1681526020013073ffffffffffffffffffffffffffffffffffffffff168152602001603c62ffffff1642018152602001858152602001838152602001600073ffffffffffffffffffffffffffffffffffffffff1681525090507f000000000000000000000000000000000000000000000000000000000000000073ffffffffffffffffffffffffffffffffffffffff1663414bf389826040518263ffffffff1660e01b81526004016108ba9190610c00565b602060405180830381600087803b1580156108d457600080fd5b505af11580156108e8573d6000803e3d6000fd5b505050506040513d601f19601f8201168201806040525081019061090c919061097c565b505050505050565b60008135905061092381610ccc565b92915050565b60008135905061093881610ce3565b92915050565b60008151905061094d81610ce3565b92915050565b60006020828403121561096557600080fd5b600061097384828501610914565b91505092915050565b60006020828403121561098e57600080fd5b600061099c8482850161093e565b91505092915050565b600080604083850312156109b857600080fd5b60006109c685828601610929565b92505060206109d785828601610914565b9150509250929050565b600080604083850312156109f457600080fd5b6000610a0285828601610929565b9250506020610a1385828601610929565b9150509250929050565b610a2681610c53565b82525050565b610a3581610c53565b82525050565b610a4481610ca8565b82525050565b61010082016000820151610a616000850182610a1d565b506020820151610a746020850182610a1d565b506040820151610a876040850182610b9d565b506060820151610a9a6060850182610a1d565b506080820151610aad6080850182610bac565b5060a0820151610ac060a0850182610bac565b5060c0820151610ad360c0850182610bac565b5060e0820151610ae660e0850182610b8e565b50505050565b61010082016000820151610b036000850182610a1d565b506020820151610b166020850182610a1d565b506040820151610b296040850182610b9d565b506060820151610b3c6060850182610a1d565b506080820151610b4f6080850182610bac565b5060a0820151610b6260a0850182610bac565b5060c0820151610b7560c0850182610bac565b5060e0820151610b8860e0850182610b8e565b50505050565b610b9781610c6f565b82525050565b610ba681610c8f565b82525050565b610bb581610c9e565b82525050565b610bc481610c9e565b82525050565b6000602082019050610bdf6000830184610a2c565b92915050565b6000602082019050610bfa6000830184610a3b565b92915050565b600061010082019050610c166000830184610a4a565b92915050565b600061010082019050610c326000830184610aec565b92915050565b6000602082019050610c4d6000830184610bbb565b92915050565b6000610c5e82610c6f565b9050919050565b6000819050919050565b600073ffffffffffffffffffffffffffffffffffffffff82169050919050565b600062ffffff82169050919050565b6000819050919050565b6000610cb382610cba565b9050919050565b6000610cc582610c6f565b9050919050565b610cd581610c65565b8114610ce057600080fd5b50565b610cec81610c9e565b8114610cf757600080fd5b5056fea26469706673582212201b15a909a35ecc187e106f0002e7683d2e2f899013f75678ab7d379b62e5675564736f6c63430007060033",
  "immutableReferences": {
    "1147": [
      {
        "length": 32,
        "start": 970
      },
      {
        "length": 32,
        "start": 1802
      },
      {
        "length": 32,
        "start": 2147
      }
    ]
  },
  "source": "pragma solidity ^0.7.6;\npragma abicoder v2;\n\nimport {ISwapRouter} from \"@uniswap/v3-periphery/contracts/interfaces/ISwapRouter.sol\";\nimport {IQuoter} from \"@uniswap/v3-periphery/contracts/interfaces/IQuoter.sol\";\nimport \"@openzeppelin/contracts/token/ERC20/SafeERC20.sol\";\nimport './interfaces/IWETH9.sol';\n\n/*\nDemo Contract, given the time constraint, edge cases and security checks are not implemented. Should use SafeMath for\nmultiplication... etc.\nIt's for demo purposes only.\n*/\ncontract Reserve {\n  using SafeERC20 for IERC20;\n\n  address private constant UNISWAP_V3_ROUTER = 0xE592427A0AEce92De3Edee1F18E0157C05861564;\n  address private constant UNISWAP_V3_IQUOTER = 0xb27308f9F90D607463bb33eA1BeBb41C27CE5AB6;\n  address private constant USDC = 0xA0b86991c6218b36c1d19D4a2e9Eb0cE3606eB48;\n  address private constant WETH = 0xC02aaA39b223FE8D0A0e5C4F27eAD9083C756Cc2;\n  uint24 private constant FEE = 3000; // 0.3%\n  uint24 private constant TRANSACTION_BUFFER_TIME = 60;\n  uint256 MAX_INT = 2**256 - 1;\n  ISwapRouter public immutable _uniswapRouter;\n\n\n  constructor() public {\n    _uniswapRouter = ISwapRouter(UNISWAP_V3_ROUTER);\n    IERC20(WETH).approve(UNISWAP_V3_ROUTER, MAX_INT); //  Set Max Approval for neccessary tokens;\n    IERC20(USDC).approve(UNISWAP_V3_ROUTER, MAX_INT); //  Set Max Approval for neccessary tokens;\n  }\n\n  event CurrentBalance(uint256 wETHAmount);\n  function rebalance(int256 delta) external {\n    _rebalance(delta);\n    emit CurrentBalance(IWETH9(WETH).balanceOf(address(this)));\n  }\n\n  function buyOptions(uint amountOptions, int256 delta) external payable {\n    _rebalance(int256(amountOptions) * delta);\n  }\n\n  function _rebalance(int256 delta) internal {\n    if (delta == 0) return;\n    //delta = delta * 10**18;\n    uint256 absoluateDelta = uint256(delta < 0 ? -delta : delta);\n    //uint256 estimateUSDC = _getWETHToUSDCquote(absoluateDelta);\n\n    if (delta > 0) {\n      // for the sake of this demo, we set the maximum USDC we can spend to twice of the estimated exchange rate.\n      _swapTokensExactOutput(IERC20(USDC), MAX_INT, IWETH9(WETH), absoluateDelta);\n    } else if (delta < 0) {\n      // for the sake of this demo, we set the minimum USDC we get by selling WETH to half of the estimated exchange\n      // rate.\n      _swapTokensExactInput(IWETH9(WETH), absoluateDelta, IERC20(USDC), 0);\n    }\n  }\n\n  function _getWETHToUSDCquote(uint256 amountIn) internal returns (uint256) {\n    amountIn = amountIn * 1000000000000;\n    return IQuoter(UNISWAP_V3_IQUOTER).quoteExactInputSingle(WETH, USDC, FEE, amountIn, 0);\n  }\n\n  function _swapTokensExactInput(IERC20 tokenIn, uint256 amountIn, IERC20 tokenOut, uint256 amountOut) internal {\n    //tokenIn.safeIncreaseAllowance(address(_uniswapRouter), amountIn);\n    ISwapRouter.ExactInputSingleParams memory params = ISwapRouter.ExactInputSingleParams(\n      address(tokenIn),\n      address(tokenOut),\n      FEE,\n      address(this), // recipient\n      block.timestamp + TRANSACTION_BUFFER_TIME, // deadline\n      amountIn, // amountIn\n      amountOut, // amountOutMinimum\n      0 // sqrtPriceLimitX96. Ignore pool price limits\n    );\n    _uniswapRouter.exactInputSingle(params);\n  }\n\n  function _swapTokensExactOutput(IERC20 tokenIn, uint256 amountIn, IERC20 tokenOut, uint256 amountOut) internal {\n    // For the sake of demo, setting the allowance to a big number for now.\n    //tokenIn.safeIncreaseAllowance(address(_uniswapRouter), 2**60);\n    ISwapRouter.ExactOutputSingleParams memory params = ISwapRouter.ExactOutputSingleParams(\n      address(tokenIn),\n      address(tokenOut),\n      FEE,\n      address(this), // recipient\n      block.timestamp + TRANSACTION_BUFFER_TIME, // deadline\n      amountOut, // amountOut\n      amountIn, // amountInMaximum\n      0 // sqrtPriceLimitX96. Ignore pool price limits\n    );\n    _uniswapRouter.exactOutputSingle(params);\n  }\n\n  // Following functions are for demo purposes\n  function injectETHToContract() external payable {\n    IWETH9(WETH).deposit{value : msg.value}();\n    emit CurrentBalance(IWETH9(WETH).balanceOf(address(this)));\n  }\n\n  //await instance.convertWEthToUSDC(ethers.utils.parseEther('1.0'), 0)\n  function convertWEthToUSDC(uint256 inAmount, uint256 out) external {\n    _swapTokensExactInput(IWETH9(WETH), inAmount, IERC20(USDC), out);\n  }\n\n  function getUSDCBalance() external view returns (uint256) {\n    return IERC20(USDC).balanceOf(address(this));\n  }\n\n  function getWETHBalance() external view returns (uint256) {\n    return IWETH9(WETH).balanceOf(address(this));\n  }\n\n  // await instance.convertUSDCToWETH(MAX_INT, ethers.utils.parseEther('1.0'));\n  function convertUSDCToWETH(uint256 inAmount, uint256 out) external {\n    _swapTokensExactOutput(IERC20(USDC), inAmount, IWETH9(WETH), out);\n  }\n}",
  "sourcePath": "/Users/daxili/coding/amm_check/contracts/Reserve.sol",
  "compiler": {
    "name": "solc",
    "version": "0.7.6+commit.7338295f.Emscripten.clang"
  },
  "schemaVersion": "3.4.2",
  "updatedAt": "2021-07-31T01:17:11.780Z",
  "networkType": "ethereum",
  "devdoc": {
    "kind": "dev",
    "methods": {},
    "version": 1
  },
  "userdoc": {
    "kind": "user",
    "methods": {},
    "version": 1
  }
}