{
  "contractName": "Reserve",
  "abi": [
    {
      "inputs": [],
      "stateMutability": "nonpayable",
      "type": "constructor"
    },
    {
      "anonymous": false,
      "inputs": [
        {
          "indexed": false,
          "internalType": "uint256",
          "name": "wETHAmount",
          "type": "uint256"
        }
      ],
      "name": "CurrentBalance",
      "type": "event"
    },
    {
      "inputs": [],
      "name": "_uniswapRouter",
      "outputs": [
        {
          "internalType": "contract ISwapRouter",
          "name": "",
          "type": "address"
        }
      ],
      "stateMutability": "view",
      "type": "function",
      "constant": true
    },
    {
      "inputs": [
        {
          "internalType": "int256",
          "name": "delta",
          "type": "int256"
        }
      ],
      "name": "rebalance",
      "outputs": [],
      "stateMutability": "nonpayable",
      "type": "function"
    },
    {
      "inputs": [
        {
          "internalType": "uint256",
          "name": "amountOptions",
          "type": "uint256"
        },
        {
          "internalType": "int256",
          "name": "delta",
          "type": "int256"
        }
      ],
      "name": "buyOptions",
      "outputs": [],
      "stateMutability": "payable",
      "type": "function",
      "payable": true
    },
    {
      "inputs": [],
      "name": "injectETHToContract",
      "outputs": [],
      "stateMutability": "payable",
      "type": "function",
      "payable": true
    },
    {
      "inputs": [
        {
          "internalType": "uint256",
          "name": "inAmount",
          "type": "uint256"
        },
        {
          "internalType": "uint256",
          "name": "out",
          "type": "uint256"
        }
      ],
      "name": "convertWEthToUSDC",
      "outputs": [],
      "stateMutability": "nonpayable",
      "type": "function"
    },
    {
      "inputs": [],
      "name": "getUSDCBalance",
      "outputs": [
        {
          "internalType": "uint256",
          "name": "",
          "type": "uint256"
        }
      ],
      "stateMutability": "view",
      "type": "function",
      "constant": true
    },
    {
      "inputs": [],
      "name": "getWETHBalance",
      "outputs": [
        {
          "internalType": "uint256",
          "name": "",
          "type": "uint256"
        }
      ],
      "stateMutability": "view",
      "type": "function",
      "constant": true
    },
    {
      "inputs": [
        {
          "internalType": "uint256",
          "name": "inAmount",
          "type": "uint256"
        },
        {
          "internalType": "uint256",
          "name": "out",
          "type": "uint256"
        }
      ],
      "name": "convertUSDCToWETH",
      "outputs": [],
      "stateMutability": "nonpayable",
      "type": "function"
    }
  ],
  "bytecode": "0x60a06040527fffffffffffffffffffffffffffffffffffffffffffffffffffffffffffffffff6000553480156200003557600080fd5b5073e592427a0aece92de3edee1f18e0157c0586156473ffffffffffffffffffffffffffffffffffffffff1660808173ffffffffffffffffffffffffffffffffffffffff1660601b8152505073c02aaa39b223fe8d0a0e5c4f27ead9083c756cc273ffffffffffffffffffffffffffffffffffffffff1663095ea7b373e592427a0aece92de3edee1f18e0157c058615646000546040518363ffffffff1660e01b8152600401620000e892919062000268565b602060405180830381600087803b1580156200010357600080fd5b505af115801562000118573d6000803e3d6000fd5b505050506040513d601f19601f820116820180604052508101906200013e91906200021a565b5073a0b86991c6218b36c1d19d4a2e9eb0ce3606eb4873ffffffffffffffffffffffffffffffffffffffff1663095ea7b373e592427a0aece92de3edee1f18e0157c058615646000546040518363ffffffff1660e01b8152600401620001a692919062000268565b602060405180830381600087803b158015620001c157600080fd5b505af1158015620001d6573d6000803e3d6000fd5b505050506040513d601f19601f82011682018060405250810190620001fc91906200021a565b50620002f9565b6000815190506200021481620002df565b92915050565b6000602082840312156200022d57600080fd5b60006200023d8482850162000203565b91505092915050565b620002518162000295565b82525050565b6200026281620002d5565b82525050565b60006040820190506200027f600083018562000246565b6200028e602083018462000257565b9392505050565b6000620002a282620002b5565b9050919050565b60008115159050919050565b600073ffffffffffffffffffffffffffffffffffffffff82169050919050565b6000819050919050565b620002ea81620002a9565b8114620002f657600080fd5b50565b60805160601c610c616200032b600039806103ca52806104345280610648528061073252806107f85250610c616000f3fe60806040526004361061007a5760003560e01c8063bb2f6b1a1161004e578063bb2f6b1a14610129578063c96501d314610152578063da7a67db1461015c578063eae3aa2b146101785761007a565b8062cbb73b1461007f57806329249fca146100aa5780633cfd1ccc146100d357806365b61b77146100fe575b600080fd5b34801561008b57600080fd5b506100946101a1565b6040516100a19190610b1e565b60405180910390f35b3480156100b657600080fd5b506100d160048036038101906100cc91906108ad565b610245565b005b3480156100df57600080fd5b506100e8610324565b6040516100f59190610b1e565b60405180910390f35b34801561010a57600080fd5b506101136103c8565b6040516101209190610a5d565b60405180910390f35b34801561013557600080fd5b50610150600480360381019061014b919061093b565b6103ec565b005b61015a6104a7565b005b610176600480360381019061017191906108ff565b6105f1565b005b34801561018457600080fd5b5061019f600480360381019061019a919061093b565b610600565b005b600073c02aaa39b223fe8d0a0e5c4f27ead9083c756cc273ffffffffffffffffffffffffffffffffffffffff166370a08231306040518263ffffffff1660e01b81526004016101f091906109ef565b60206040518083038186803b15801561020857600080fd5b505afa15801561021c573d6000803e3d6000fd5b505050506040513d601f19601f8201168201806040525081019061024091906108d6565b905090565b61024e816106bb565b7fccd63b477c883a586271d6c5e65e8a82327bddc52ed1908a1078708f8c5c101a73c02aaa39b223fe8d0a0e5c4f27ead9083c756cc273ffffffffffffffffffffffffffffffffffffffff166370a08231306040518263ffffffff1660e01b81526004016102bc91906109ef565b60206040518083038186803b1580156102d457600080fd5b505afa1580156102e8573d6000803e3d6000fd5b505050506040513d601f19601f8201168201806040525081019061030c91906108d6565b6040516103199190610b1e565b60405180910390a150565b600073a0b86991c6218b36c1d19d4a2e9eb0ce3606eb4873ffffffffffffffffffffffffffffffffffffffff166370a08231306040518263ffffffff1660e01b815260040161037391906109ef565b60206040518083038186803b15801561038b57600080fd5b505afa15801561039f573d6000803e3d6000fd5b505050506040513d601f19601f820116820180604052508101906103c391906108d6565b905090565b7f000000000000000000000000000000000000000000000000000000000000000081565b73__UniswapLib____________________________63b5bfae3573a0b86991c6218b36c1d19d4a2e9eb0ce3606eb488473c02aaa39b223fe8d0a0e5c4f27ead9083c756cc2857f00000000000000000000000000000000000000000000000000000000000000006040518663ffffffff1660e01b8152600401610473959493929190610a0a565b60006040518083038186803b15801561048b57600080fd5b505af415801561049f573d6000803e3d6000fd5b505050505050565b73c02aaa39b223fe8d0a0e5c4f27ead9083c756cc273ffffffffffffffffffffffffffffffffffffffff1663d0e30db0346040518263ffffffff1660e01b81526004016000604051808303818588803b15801561050357600080fd5b505af1158015610517573d6000803e3d6000fd5b50505050507fccd63b477c883a586271d6c5e65e8a82327bddc52ed1908a1078708f8c5c101a73c02aaa39b223fe8d0a0e5c4f27ead9083c756cc273ffffffffffffffffffffffffffffffffffffffff166370a08231306040518263ffffffff1660e01b815260040161058a91906109ef565b60206040518083038186803b1580156105a257600080fd5b505afa1580156105b6573d6000803e3d6000fd5b505050506040513d601f19601f820116820180604052508101906105da91906108d6565b6040516105e79190610b1e565b60405180910390a1565b6105fc8183026106bb565b5050565b73__UniswapLib____________________________6348ecfb5573c02aaa39b223fe8d0a0e5c4f27ead9083c756cc28473a0b86991c6218b36c1d19d4a2e9eb0ce3606eb48857f00000000000000000000000000000000000000000000000000000000000000006040518663ffffffff1660e01b8152600401610687959493929190610acb565b60006040518083038186803b15801561069f57600080fd5b505af41580156106b3573d6000803e3d6000fd5b505050505050565b60008114156106c95761086b565b60008082126106d857816106dd565b816000035b905060008213156107a65773__UniswapLib____________________________63b5bfae3573a0b86991c6218b36c1d19d4a2e9eb0ce3606eb4860005473c02aaa39b223fe8d0a0e5c4f27ead9083c756cc2857f00000000000000000000000000000000000000000000000000000000000000006040518663ffffffff1660e01b8152600401610771959493929190610a0a565b60006040518083038186803b15801561078957600080fd5b505af415801561079d573d6000803e3d6000fd5b50505050610869565b60008212156108685773__UniswapLib____________________________6348ecfb5573c02aaa39b223fe8d0a0e5c4f27ead9083c756cc28373a0b86991c6218b36c1d19d4a2e9eb0ce3606eb4860007f00000000000000000000000000000000000000000000000000000000000000006040518663ffffffff1660e01b8152600401610837959493929190610a78565b60006040518083038186803b15801561084f57600080fd5b505af4158015610863573d6000803e3d6000fd5b505050505b5b505b50565b60008135905061087d81610bfd565b92915050565b60008135905061089281610c14565b92915050565b6000815190506108a781610c14565b92915050565b6000602082840312156108bf57600080fd5b60006108cd8482850161086e565b91505092915050565b6000602082840312156108e857600080fd5b60006108f684828501610898565b91505092915050565b6000806040838503121561091257600080fd5b600061092085828601610883565b92505060206109318582860161086e565b9150509250929050565b6000806040838503121561094e57600080fd5b600061095c85828601610883565b925050602061096d85828601610883565b9150509250929050565b61098081610b39565b82525050565b61098f81610b7f565b82525050565b61099e81610ba3565b82525050565b6109ad81610ba3565b82525050565b6109bc81610bc7565b82525050565b6109cb81610beb565b82525050565b6109da81610b75565b82525050565b6109e981610b75565b82525050565b6000602082019050610a046000830184610977565b92915050565b600060a082019050610a1f6000830188610986565b610a2c60208301876109e0565b610a3960408301866109b3565b610a4660608301856109e0565b610a5360808301846109a4565b9695505050505050565b6000602082019050610a726000830184610995565b92915050565b600060a082019050610a8d60008301886109b3565b610a9a60208301876109e0565b610aa76040830186610986565b610ab460608301856109c2565b610ac160808301846109a4565b9695505050505050565b600060a082019050610ae060008301886109b3565b610aed60208301876109e0565b610afa6040830186610986565b610b0760608301856109e0565b610b1460808301846109a4565b9695505050505050565b6000602082019050610b3360008301846109d1565b92915050565b6000610b4482610b55565b9050919050565b6000819050919050565b600073ffffffffffffffffffffffffffffffffffffffff82169050919050565b6000819050919050565b6000610b8a82610b91565b9050919050565b6000610b9c82610b55565b9050919050565b6000610bae82610bb5565b9050919050565b6000610bc082610b55565b9050919050565b6000610bd282610bd9565b9050919050565b6000610be482610b55565b9050919050565b6000610bf682610b75565b9050919050565b610c0681610b4b565b8114610c1157600080fd5b50565b610c1d81610b75565b8114610c2857600080fd5b5056fea2646970667358221220d0365f452941afce6e224f7b34ce59cd7e4c80cdf9e8b770354eea1a868d44c764736f6c63430007060033",
  "immutableReferences": {
    "1123": [
      {
        "length": 32,
        "start": 970
      },
      {
        "length": 32,
        "start": 1076
      },
      {
        "length": 32,
        "start": 1608
      },
      {
        "length": 32,
        "start": 1842
      },
      {
        "length": 32,
        "start": 2040
      }
    ]
  },
  "source": "pragma solidity ^0.7.6;\npragma abicoder v2;\n\nimport {ISwapRouter} from \"@uniswap/v3-periphery/contracts/interfaces/ISwapRouter.sol\";\nimport './UniswapLib.sol';\n\n/*\n  Demo Contract, given the time constraint, edge cases and balance/security checks are not implemented.\n  It's for demo purposes only.\n*/\ncontract Reserve {\n  uint256 MAX_INT = 2**256 - 1;\n  ISwapRouter public immutable _uniswapRouter;\n\n  constructor() public {\n    _uniswapRouter = ISwapRouter(UniswapLib.UNISWAP_V3_ROUTER);\n    IERC20(UniswapLib.WETH).approve(UniswapLib.UNISWAP_V3_ROUTER, MAX_INT); //  Set Max Approval for neccessary tokens;\n    IERC20(UniswapLib.USDC).approve(UniswapLib.UNISWAP_V3_ROUTER, MAX_INT); //  Set Max Approval for neccessary tokens;\n  }\n\n  event CurrentBalance(uint256 wETHAmount);\n  function rebalance(int256 delta) external {\n    _rebalance(delta);\n    emit CurrentBalance(IWETH9(UniswapLib.WETH).balanceOf(address(this)));\n  }\n\n  function buyOptions(uint amountOptions, int256 delta) external payable {\n    _rebalance(int256(amountOptions) * delta);\n  }\n\n  function _rebalance(int256 delta) internal {\n    if (delta == 0) return;\n    uint256 absoluateDelta = uint256(delta < 0 ? -delta : delta);\n\n    if (delta > 0) {\n      // for the sake of this demo, we set the maximum USDC we spend to MAX_INT.\n      UniswapLib.swapTokensExactOutput(\n        IERC20(UniswapLib.USDC), MAX_INT, IWETH9(UniswapLib.WETH), absoluateDelta, _uniswapRouter);\n    } else if (delta < 0) {\n      // for the sake of this demo, we set the minimum USDC we get to 0.\n      UniswapLib.swapTokensExactInput(\n        IWETH9(UniswapLib.WETH), absoluateDelta, IERC20(UniswapLib.USDC), 0, _uniswapRouter);\n    }\n  }\n\n  // Following functions are for demo purposes\n  function injectETHToContract() external payable {\n    IWETH9(UniswapLib.WETH).deposit{value : msg.value}();\n    emit CurrentBalance(IWETH9(UniswapLib.WETH).balanceOf(address(this)));\n  }\n\n  //await instance.convertWEthToUSDC(ethers.utils.parseEther('1.0'), 0)\n  function convertWEthToUSDC(uint256 inAmount, uint256 out) external {\n    UniswapLib.swapTokensExactInput(\n      IWETH9(UniswapLib.WETH), inAmount, IERC20(UniswapLib.USDC), out, _uniswapRouter);\n  }\n\n  function getUSDCBalance() external view returns (uint256) {\n    return IERC20(UniswapLib.USDC).balanceOf(address(this));\n  }\n\n  function getWETHBalance() external view returns (uint256) {\n    return IWETH9(UniswapLib.WETH).balanceOf(address(this));\n  }\n\n  // await instance.convertUSDCToWETH(MAX_INT, ethers.utils.parseEther('1.0'));\n  function convertUSDCToWETH(uint256 inAmount, uint256 out) external {\n    UniswapLib.swapTokensExactOutput(\n      IERC20(UniswapLib.USDC), inAmount, IWETH9(UniswapLib.WETH), out, _uniswapRouter);\n  }\n}",
  "sourcePath": "/Users/daxili/coding/amm_check/contracts/Reserve.sol",
  "compiler": {
    "name": "solc",
    "version": "0.7.6+commit.7338295f.Emscripten.clang"
  },
  "schemaVersion": "3.4.2",
  "updatedAt": "2021-07-31T14:21:25.851Z",
  "networkType": "ethereum",
  "devdoc": {
    "kind": "dev",
    "methods": {},
    "version": 1
  },
  "userdoc": {
    "kind": "user",
    "methods": {},
    "version": 1
  }
}