{
  "contractName": "Reservse",
  "abi": [
    {
      "inputs": [],
      "stateMutability": "nonpayable",
      "type": "constructor"
    },
    {
      "anonymous": false,
      "inputs": [
        {
          "indexed": false,
          "internalType": "uint256",
          "name": "amountOptionDesired",
          "type": "uint256"
        },
        {
          "indexed": false,
          "internalType": "int256",
          "name": "delta",
          "type": "int256"
        },
        {
          "indexed": false,
          "internalType": "bool",
          "name": "sucess",
          "type": "bool"
        },
        {
          "indexed": false,
          "internalType": "string",
          "name": "msg",
          "type": "string"
        }
      ],
      "name": "BuyOptionsResult",
      "type": "event"
    },
    {
      "anonymous": false,
      "inputs": [
        {
          "indexed": false,
          "internalType": "uint256",
          "name": "wETHAmount",
          "type": "uint256"
        }
      ],
      "name": "RebalanceResult",
      "type": "event"
    },
    {
      "inputs": [
        {
          "internalType": "uint256",
          "name": "amountOptionDesired",
          "type": "uint256"
        },
        {
          "internalType": "int256",
          "name": "delta",
          "type": "int256"
        }
      ],
      "name": "buyOptions",
      "outputs": [],
      "stateMutability": "payable",
      "type": "function"
    },
    {
      "inputs": [
        {
          "internalType": "int256",
          "name": "delta",
          "type": "int256"
        }
      ],
      "name": "rebalance",
      "outputs": [],
      "stateMutability": "nonpayable",
      "type": "function"
    }
  ],
  "bytecode": "0x60a060405273c02aaa39b223fe8d0a0e5c4f27ead9083c756cc273ffffffffffffffffffffffffffffffffffffffff1660809073ffffffffffffffffffffffffffffffffffffffff1660601b81525034801561005a57600080fd5b5060805160601c610181610073600039506101816000f3fe6080604052600436106100295760003560e01c806329249fca1461002e578063da7a67db14610057575b600080fd5b34801561003a57600080fd5b50610055600480360381019061005091906100a4565b610073565b005b610071600480360381019061006c91906100cd565b610076565b005b50565b5050565b6000813590506100898161011d565b92915050565b60008135905061009e81610134565b92915050565b6000602082840312156100b657600080fd5b60006100c48482850161007a565b91505092915050565b600080604083850312156100e057600080fd5b60006100ee8582860161008f565b92505060206100ff8582860161007a565b9150509250929050565b6000819050919050565b6000819050919050565b61012681610109565b811461013157600080fd5b50565b61013d81610113565b811461014857600080fd5b5056fea2646970667358221220807e640d7d41f61eeae0bba6965d1bd66d563589c9410fa82081e6de515daac564736f6c63430007050033",
  "immutableReferences": {},
  "source": "pragma solidity ^0.7.0;\npragma abicoder v2;\n\n//import {ISwapRouter} from \"@uniswap/v3-periphery/contracts/interfaces/ISwapRouter.sol\";\n//import \"@openzeppelin/contracts/token/ERC20/SafeERC20.sol\";\n\ncontract Reservse {\n  event BuyOptionsResult(uint amountOptionDesired, int256 delta, bool sucess, string msg);\n  event RebalanceResult(uint256 wETHAmount);\n\n  //ISwapRouter public constant uniswapRouter = ISwapRouter(0xE592427A0AEce92De3Edee1F18E0157C05861564);\n  address immutable WETH = 0xC02aaA39b223FE8D0A0e5C4F27eAD9083C756Cc2;\n\n  constructor() public {\n\n  }\n\n  function buyOptions(uint amountOptionDesired, int256 delta) external payable {\n  }\n\n  function rebalance(int256 delta) external {\n\n  }\n}",
  "sourcePath": "/Users/daxili/coding/amm_check/contracts/Reserve.sol",
  "compiler": {
    "name": "solc",
    "version": "0.7.5+commit.eb77ed08.Emscripten.clang"
  },
  "schemaVersion": "3.4.2",
  "updatedAt": "2021-07-30T14:10:46.604Z",
  "devdoc": {
    "kind": "dev",
    "methods": {},
    "version": 1
  },
  "userdoc": {
    "kind": "user",
    "methods": {},
    "version": 1
  }
}