{
  "contractName": "Router",
  "abi": [
    {
      "inputs": [
        {
          "internalType": "address",
          "name": "reserveAddress",
          "type": "address"
        },
        {
          "internalType": "address",
          "name": "verifierAddress",
          "type": "address"
        }
      ],
      "stateMutability": "nonpayable",
      "type": "constructor"
    },
    {
      "inputs": [],
      "name": "_reserve",
      "outputs": [
        {
          "internalType": "contract Reserve",
          "name": "",
          "type": "address"
        }
      ],
      "stateMutability": "view",
      "type": "function",
      "constant": true
    },
    {
      "inputs": [],
      "name": "_verifier",
      "outputs": [
        {
          "internalType": "contract Verifier",
          "name": "",
          "type": "address"
        }
      ],
      "stateMutability": "view",
      "type": "function",
      "constant": true
    },
    {
      "inputs": [
        {
          "internalType": "int256",
          "name": "delta",
          "type": "int256"
        },
        {
          "internalType": "bytes",
          "name": "signature",
          "type": "bytes"
        }
      ],
      "name": "rebalance",
      "outputs": [],
      "stateMutability": "nonpayable",
      "type": "function"
    },
    {
      "inputs": [
        {
          "internalType": "uint256",
          "name": "optionPrice",
          "type": "uint256"
        },
        {
          "internalType": "uint256",
          "name": "amountOptions",
          "type": "uint256"
        },
        {
          "internalType": "int256",
          "name": "delta",
          "type": "int256"
        },
        {
          "internalType": "bytes",
          "name": "signature",
          "type": "bytes"
        }
      ],
      "name": "buyOptions",
      "outputs": [],
      "stateMutability": "nonpayable",
      "type": "function"
    }
  ],
  "bytecode": "0x60c060405234801561001057600080fd5b50604051610982380380610982833981810160405281019061003291906100bc565b8173ffffffffffffffffffffffffffffffffffffffff1660808173ffffffffffffffffffffffffffffffffffffffff1660601b815250508073ffffffffffffffffffffffffffffffffffffffff1660a08173ffffffffffffffffffffffffffffffffffffffff1660601b815250505050610141565b6000815190506100b68161012a565b92915050565b600080604083850312156100cf57600080fd5b60006100dd858286016100a7565b92505060206100ee858286016100a7565b9150509250929050565b60006101038261010a565b9050919050565b600073ffffffffffffffffffffffffffffffffffffffff82169050919050565b610133816100f8565b811461013e57600080fd5b50565b60805160601c60a05160601c61080b6101776000398061018552806101d452508060c7528060f6528061028b525061080b6000f3fe608060405234801561001057600080fd5b506004361061004c5760003560e01c8063413ab4a81461005157806376148e051461006f5780638a1726511461008b5780639ca4f532146100a9575b600080fd5b6100596100c5565b60405161006691906105a2565b60405180910390f35b610089600480360381019061008491906103ed565b6100e9565b005b610093610183565b6040516100a091906105bd565b60405180910390f35b6100c360048036038101906100be9190610441565b6101a7565b005b7f000000000000000000000000000000000000000000000000000000000000000081565b670de0b6b3a764000091507f000000000000000000000000000000000000000000000000000000000000000073ffffffffffffffffffffffffffffffffffffffff166329249fca836040518263ffffffff1660e01b815260040161014d91906105d8565b600060405180830381600087803b15801561016757600080fd5b505af115801561017b573d6000803e3d6000fd5b505050505050565b7f000000000000000000000000000000000000000000000000000000000000000081565b6000846040516020016101ba9190610557565b6040516020818303038152906040528051906020012090507f000000000000000000000000000000000000000000000000000000000000000073ffffffffffffffffffffffffffffffffffffffff166350a109e482846040518363ffffffff1660e01b815260040161022d929190610572565b60206040518083038186803b15801561024557600080fd5b505afa158015610259573d6000803e3d6000fd5b505050506040513d601f19601f8201168201806040525081019061027d91906103c4565b50670de0b6b3a764000092507f000000000000000000000000000000000000000000000000000000000000000073ffffffffffffffffffffffffffffffffffffffff1663da7a67db85856040518363ffffffff1660e01b81526004016102e49291906105f3565b600060405180830381600087803b1580156102fe57600080fd5b505af1158015610312573d6000803e3d6000fd5b505050505050505050565b600061033061032b8461064d565b61061c565b90508281526020810184848401111561034857600080fd5b610353848285610731565b509392505050565b60008151905061036a81610790565b92915050565b600082601f83011261038157600080fd5b813561039184826020860161031d565b91505092915050565b6000813590506103a9816107a7565b92915050565b6000813590506103be816107be565b92915050565b6000602082840312156103d657600080fd5b60006103e48482850161035b565b91505092915050565b6000806040838503121561040057600080fd5b600061040e8582860161039a565b925050602083013567ffffffffffffffff81111561042b57600080fd5b61043785828601610370565b9150509250929050565b6000806000806080858703121561045757600080fd5b6000610465878288016103af565b9450506020610476878288016103af565b93505060406104878782880161039a565b925050606085013567ffffffffffffffff8111156104a457600080fd5b6104b087828801610370565b91505092959194509250565b6104c5816106ab565b82525050565b60006104d68261067d565b6104e08185610688565b93506104f0818560208601610740565b6104f98161077f565b840191505092915050565b61050d816106e9565b82525050565b61051c8161070d565b82525050565b61052b816106b5565b82525050565b61053a816106df565b82525050565b61055161054c826106df565b610773565b82525050565b60006105638284610540565b60208201915081905092915050565b600060408201905061058760008301856104bc565b818103602083015261059981846104cb565b90509392505050565b60006020820190506105b76000830184610504565b92915050565b60006020820190506105d26000830184610513565b92915050565b60006020820190506105ed6000830184610522565b92915050565b60006040820190506106086000830185610531565b6106156020830184610522565b9392505050565b6000604051905081810181811067ffffffffffffffff821117156106435761064261077d565b5b8060405250919050565b600067ffffffffffffffff8211156106685761066761077d565b5b601f19601f8301169050602081019050919050565b600081519050919050565b600082825260208201905092915050565b60006106a4826106bf565b9050919050565b6000819050919050565b6000819050919050565b600073ffffffffffffffffffffffffffffffffffffffff82169050919050565b6000819050919050565b60006106f4826106fb565b9050919050565b6000610706826106bf565b9050919050565b60006107188261071f565b9050919050565b600061072a826106bf565b9050919050565b82818337600083830152505050565b60005b8381101561075e578082015181840152602081019050610743565b8381111561076d576000848401525b50505050565b6000819050919050565bfe5b6000601f19601f8301169050919050565b61079981610699565b81146107a457600080fd5b50565b6107b0816106b5565b81146107bb57600080fd5b50565b6107c7816106df565b81146107d257600080fd5b5056fea2646970667358221220359d72d63bed403bd2ad320701bd5e0e60aa7ca0c38688e8d7371ce3e9ba8f7864736f6c63430007060033",
  "immutableReferences": {
    "1381": [
      {
        "length": 32,
        "start": 199
      },
      {
        "length": 32,
        "start": 246
      },
      {
        "length": 32,
        "start": 651
      }
    ],
    "1383": [
      {
        "length": 32,
        "start": 389
      },
      {
        "length": 32,
        "start": 468
      }
    ]
  },
  "source": "pragma solidity ^0.7.6;\npragma abicoder v2;\n\nimport \"./Reserve.sol\";\nimport \"./Verifier.sol\";\n\ncontract Router {\n  Reserve public immutable _reserve;\n  Verifier public immutable _verifier;\n\n  constructor(address reserveAddress, address verifierAddress) public {\n    _reserve = Reserve(reserveAddress);\n    _verifier = Verifier(verifierAddress);\n  }\n\n\n  function rebalance(int256 delta, bytes memory signature) external {\n    // We are suppose to verify this rebalance processes. However, due to\n    // off-chain enclave implementation is not fully ready yet. We commented the\n    // logic out for this demo.\n    // byte32 hash = keccak256(abi.encodePacked(delta));\n    // if (_verifier.enclave() != _verifier.retrieveAddressFromSignature(hash, signature)) return;\n\n    // Fixed delta for this demo.\n    delta = 1 ether;\n    _reserve.rebalance(delta);\n  }\n\n  function buyOptions(uint optionPrice, uint amountOptions, int256 delta, bytes memory signature) external {\n    // For the purpose of this demo, optionPrice will only be used for verification.\n    bytes32 hash = keccak256(abi.encodePacked(optionPrice));\n    _verifier.retrieveAddressFromSignature(hash, signature);\n    // uncomment once the following is ready\n    // if (_verifier.enclave() != _verifier.retrieveAddressFromSignature(hash, signature)) return;\n    delta = 1 ether;\n    _reserve.buyOptions(amountOptions, delta);\n  }\n}",
  "sourcePath": "/Users/daxili/coding/amm_check/contracts/Router.sol",
  "compiler": {
    "name": "solc",
    "version": "0.7.6+commit.7338295f.Emscripten.clang"
  },
  "schemaVersion": "3.4.2",
  "updatedAt": "2021-07-31T14:03:39.493Z",
  "networkType": "ethereum",
  "devdoc": {
    "kind": "dev",
    "methods": {},
    "version": 1
  },
  "userdoc": {
    "kind": "user",
    "methods": {},
    "version": 1
  }
}