{
  "contractName": "SimulationProxy",
  "abi": [
    {
      "inputs": [],
      "stateMutability": "nonpayable",
      "type": "constructor"
    },
    {
      "anonymous": false,
      "inputs": [
        {
          "indexed": false,
          "internalType": "uint256",
          "name": "usdc",
          "type": "uint256"
        }
      ],
      "name": "Price",
      "type": "event"
    },
    {
      "inputs": [],
      "name": "_uniswapRouter",
      "outputs": [
        {
          "internalType": "contract ISwapRouter",
          "name": "",
          "type": "address"
        }
      ],
      "stateMutability": "view",
      "type": "function",
      "constant": true
    },
    {
      "inputs": [],
      "name": "injectETHToContract",
      "outputs": [],
      "stateMutability": "payable",
      "type": "function",
      "payable": true
    },
    {
      "inputs": [
        {
          "internalType": "uint256",
          "name": "ethAmount",
          "type": "uint256"
        }
      ],
      "name": "convertWEthToUSDC",
      "outputs": [],
      "stateMutability": "nonpayable",
      "type": "function"
    },
    {
      "inputs": [
        {
          "internalType": "uint256",
          "name": "ethAmount",
          "type": "uint256"
        }
      ],
      "name": "convertUSDCToWETHC",
      "outputs": [],
      "stateMutability": "nonpayable",
      "type": "function"
    },
    {
      "inputs": [],
      "name": "getUSDCBalance",
      "outputs": [
        {
          "internalType": "uint256",
          "name": "",
          "type": "uint256"
        }
      ],
      "stateMutability": "view",
      "type": "function",
      "constant": true
    },
    {
      "inputs": [],
      "name": "getWETHBalance",
      "outputs": [
        {
          "internalType": "uint256",
          "name": "",
          "type": "uint256"
        }
      ],
      "stateMutability": "view",
      "type": "function",
      "constant": true
    },
    {
      "inputs": [],
      "name": "getWETHPrice",
      "outputs": [],
      "stateMutability": "nonpayable",
      "type": "function"
    }
  ],
  "bytecode": "0x60a06040527fffffffffffffffffffffffffffffffffffffffffffffffffffffffffffffffff6000553480156200003557600080fd5b5073e592427a0aece92de3edee1f18e0157c0586156473ffffffffffffffffffffffffffffffffffffffff1660808173ffffffffffffffffffffffffffffffffffffffff1660601b8152505073c02aaa39b223fe8d0a0e5c4f27ead9083c756cc273ffffffffffffffffffffffffffffffffffffffff1663095ea7b373e592427a0aece92de3edee1f18e0157c058615646000546040518363ffffffff1660e01b8152600401620000e892919062000268565b602060405180830381600087803b1580156200010357600080fd5b505af115801562000118573d6000803e3d6000fd5b505050506040513d601f19601f820116820180604052508101906200013e91906200021a565b5073a0b86991c6218b36c1d19d4a2e9eb0ce3606eb4873ffffffffffffffffffffffffffffffffffffffff1663095ea7b373e592427a0aece92de3edee1f18e0157c058615646000546040518363ffffffff1660e01b8152600401620001a692919062000268565b602060405180830381600087803b158015620001c157600080fd5b505af1158015620001d6573d6000803e3d6000fd5b505050506040513d601f19601f82011682018060405250810190620001fc91906200021a565b50620002f9565b6000815190506200021481620002df565b92915050565b6000602082840312156200022d57600080fd5b60006200023d8482850162000203565b91505092915050565b620002518162000295565b82525050565b6200026281620002d5565b82525050565b60006040820190506200027f600083018562000246565b6200028e602083018462000257565b9392505050565b6000620002a282620002b5565b9050919050565b60008115159050919050565b600073ffffffffffffffffffffffffffffffffffffffff82169050919050565b6000819050919050565b620002ea81620002a9565b8114620002f657600080fd5b50565b60805160601c6108bd62000321600039806102b252806103ea528061051d52506108bd6000f3fe60806040526004361061006f5760003560e01c8063738dc8fa1161004e578063738dc8fa146100f5578063c63f57f81461010c578063c96501d314610135578063ce9895301461013f5761006f565b8062cbb73b146100745780633cfd1ccc1461009f57806365b61b77146100ca575b600080fd5b34801561008057600080fd5b50610089610168565b6040516100969190610789565b60405180910390f35b3480156100ab57600080fd5b506100b461020c565b6040516100c19190610789565b60405180910390f35b3480156100d657600080fd5b506100df6102b0565b6040516100ec9190610700565b60405180910390f35b34801561010157600080fd5b5061010a6102d4565b005b34801561011857600080fd5b50610133600480360381019061012e91906105b9565b6103a1565b005b61013d61045c565b005b34801561014b57600080fd5b50610166600480360381019061016191906105b9565b6104d3565b005b600073c02aaa39b223fe8d0a0e5c4f27ead9083c756cc273ffffffffffffffffffffffffffffffffffffffff166370a08231306040518263ffffffff1660e01b81526004016101b79190610692565b60206040518083038186803b1580156101cf57600080fd5b505afa1580156101e3573d6000803e3d6000fd5b505050506040513d601f19601f8201168201806040525081019061020791906105e2565b905090565b600073a0b86991c6218b36c1d19d4a2e9eb0ce3606eb4873ffffffffffffffffffffffffffffffffffffffff166370a08231306040518263ffffffff1660e01b815260040161025b9190610692565b60206040518083038186803b15801561027357600080fd5b505afa158015610287573d6000803e3d6000fd5b505050506040513d601f19601f820116820180604052508101906102ab91906105e2565b905090565b7f000000000000000000000000000000000000000000000000000000000000000081565b600073__UniswapLib____________________________63a6a939af670de0b6b3a76400006040518263ffffffff1660e01b8152600401610315919061076e565b60206040518083038186803b15801561032d57600080fd5b505af4158015610341573d6000803e3d6000fd5b505050506040513d601f19601f8201168201806040525081019061036591906105e2565b90507f63f32f63810afda7c9be9643f9fa73ee3f39a9fd8bb35775a2b0d73e48ed9bed816040516103969190610789565b60405180910390a150565b73__UniswapLib____________________________6348ecfb5573c02aaa39b223fe8d0a0e5c4f27ead9083c756cc28373a0b86991c6218b36c1d19d4a2e9eb0ce3606eb4860007f00000000000000000000000000000000000000000000000000000000000000006040518663ffffffff1660e01b815260040161042995949392919061071b565b60006040518083038186803b15801561044157600080fd5b505af4158015610455573d6000803e3d6000fd5b5050505050565b73c02aaa39b223fe8d0a0e5c4f27ead9083c756cc273ffffffffffffffffffffffffffffffffffffffff1663d0e30db0346040518263ffffffff1660e01b81526004016000604051808303818588803b1580156104b857600080fd5b505af11580156104cc573d6000803e3d6000fd5b5050505050565b73__UniswapLib____________________________63b5bfae3573a0b86991c6218b36c1d19d4a2e9eb0ce3606eb4860005473c02aaa39b223fe8d0a0e5c4f27ead9083c756cc2857f00000000000000000000000000000000000000000000000000000000000000006040518663ffffffff1660e01b815260040161055c9594939291906106ad565b60006040518083038186803b15801561057457600080fd5b505af4158015610588573d6000803e3d6000fd5b5050505050565b60008135905061059e81610870565b92915050565b6000815190506105b381610870565b92915050565b6000602082840312156105cb57600080fd5b60006105d98482850161058f565b91505092915050565b6000602082840312156105f457600080fd5b6000610602848285016105a4565b91505092915050565b610614816107a4565b82525050565b610623816107e0565b82525050565b61063281610804565b82525050565b61064181610804565b82525050565b61065081610828565b82525050565b61065f8161084c565b82525050565b61066e8161085e565b82525050565b61067d816107d6565b82525050565b61068c816107d6565b82525050565b60006020820190506106a7600083018461060b565b92915050565b600060a0820190506106c2600083018861061a565b6106cf6020830187610683565b6106dc6040830186610647565b6106e96060830185610683565b6106f66080830184610638565b9695505050505050565b60006020820190506107156000830184610629565b92915050565b600060a0820190506107306000830188610647565b61073d6020830187610683565b61074a604083018661061a565b6107576060830185610656565b6107646080830184610638565b9695505050505050565b60006020820190506107836000830184610665565b92915050565b600060208201905061079e6000830184610674565b92915050565b60006107af826107b6565b9050919050565b600073ffffffffffffffffffffffffffffffffffffffff82169050919050565b6000819050919050565b60006107eb826107f2565b9050919050565b60006107fd826107b6565b9050919050565b600061080f82610816565b9050919050565b6000610821826107b6565b9050919050565b60006108338261083a565b9050919050565b6000610845826107b6565b9050919050565b6000610857826107d6565b9050919050565b6000610869826107d6565b9050919050565b610879816107d6565b811461088457600080fd5b5056fea2646970667358221220dc808a69b16b8d6f6b5a9c0180fe0329fda5d4b383064618b99229a7023264d664736f6c63430007060033",
  "immutableReferences": {
    "1468": [
      {
        "length": 32,
        "start": 690
      },
      {
        "length": 32,
        "start": 1002
      },
      {
        "length": 32,
        "start": 1309
      }
    ]
  },
  "source": "pragma solidity ^0.7.6;\npragma abicoder v2;\n\nimport {ISwapRouter} from \"@uniswap/v3-periphery/contracts/interfaces/ISwapRouter.sol\";\nimport './UniswapLib.sol';\n\n// quick and dirty Proxy contract used in demo to swap WETH/USDC pair in parallel to the reserve\n// Given the time constraint, we directly copy the existing code to make it work.\ncontract SimulationProxy {\n  uint256 MAX_INT = 2**256 - 1;\n  ISwapRouter public immutable _uniswapRouter;\n\n  constructor() public {\n    _uniswapRouter = ISwapRouter(UniswapLib.UNISWAP_V3_ROUTER);\n    IERC20(UniswapLib.WETH).approve(UniswapLib.UNISWAP_V3_ROUTER, MAX_INT); //  Set Max Approval for neccessary tokens;\n    IERC20(UniswapLib.USDC).approve(UniswapLib.UNISWAP_V3_ROUTER, MAX_INT); //  Set Max Approval for neccessary tokens;\n  }\n\n  // Following functions are for demo purposes\n  function injectETHToContract() external payable {\n    IWETH9(UniswapLib.WETH).deposit{value : msg.value}();\n  }\n\n  //await instance.convertWEthToUSDC(ethers.utils.parseEther('1.0'), 0)\n  function convertWEthToUSDC(uint256 ethAmount) external {\n    UniswapLib.swapTokensExactInput(\n      IWETH9(UniswapLib.WETH), ethAmount, IERC20(UniswapLib.USDC), 0, _uniswapRouter);\n  }\n\n  function convertUSDCToWETHC(uint256 ethAmount) external {\n    UniswapLib.swapTokensExactOutput(\n      IERC20(UniswapLib.USDC), MAX_INT, IWETH9(UniswapLib.WETH), ethAmount, _uniswapRouter);\n  }\n\n  function getUSDCBalance() external view returns (uint256) {\n    return IERC20(UniswapLib.USDC).balanceOf(address(this));\n  }\n\n  function getWETHBalance() external view returns (uint256) {\n    return IWETH9(UniswapLib.WETH).balanceOf(address(this));\n  }\n\n  event Price(uint256 usdc);\n  function getWETHPrice() external {\n    uint256 price = UniswapLib.getWETHToUSDCquote(1 ether);\n    emit Price(price);\n  }\n}",
  "sourcePath": "/Users/daxili/coding/amm_check/contracts/SimulationProxy.sol",
  "compiler": {
    "name": "solc",
    "version": "0.7.6+commit.7338295f.Emscripten.clang"
  },
  "schemaVersion": "3.4.2",
  "updatedAt": "2021-07-31T16:41:13.946Z",
  "networkType": "ethereum",
  "devdoc": {
    "kind": "dev",
    "methods": {},
    "version": 1
  },
  "userdoc": {
    "kind": "user",
    "methods": {},
    "version": 1
  }
}