{
  "contractName": "UniswapLib",
  "abi": [
    {
      "inputs": [],
      "name": "UNISWAP_V3_IQUOTER",
      "outputs": [
        {
          "internalType": "address",
          "name": "",
          "type": "address"
        }
      ],
      "stateMutability": "view",
      "type": "function",
      "constant": true
    },
    {
      "inputs": [],
      "name": "UNISWAP_V3_ROUTER",
      "outputs": [
        {
          "internalType": "address",
          "name": "",
          "type": "address"
        }
      ],
      "stateMutability": "view",
      "type": "function",
      "constant": true
    },
    {
      "inputs": [],
      "name": "USDC",
      "outputs": [
        {
          "internalType": "address",
          "name": "",
          "type": "address"
        }
      ],
      "stateMutability": "view",
      "type": "function",
      "constant": true
    },
    {
      "inputs": [],
      "name": "WETH",
      "outputs": [
        {
          "internalType": "address",
          "name": "",
          "type": "address"
        }
      ],
      "stateMutability": "view",
      "type": "function",
      "constant": true
    }
  ],
  "bytecode": "0x6109f6610026600b82828239805160001a60731461001957fe5b30600052607381538281f3fe73000000000000000000000000000000000000000030146080604052600436106100875760003560e01c8063a6a939af11610065578063a6a939af146100f1578063ad5c46481461012e578063b5bfae351461014c578063f9c8413c1461017557610087565b806341c64a2f1461008c57806348ecfb55146100aa57806389a30271146100d3575b600080fd5b610094610193565b6040516100a19190610839565b60405180910390f35b8180156100b657600080fd5b506100d160048036038101906100cc9190610596565b6101ab565b005b6100db6102e5565b6040516100e89190610839565b60405180910390f35b8180156100fd57600080fd5b506101186004803603810190610113919061060d565b6102fd565b60405161012591906108df565b60405180910390f35b6101366103d8565b6040516101439190610839565b60405180910390f35b81801561015857600080fd5b50610173600480360381019061016e9190610596565b6103f0565b005b61017d61052a565b60405161018a9190610839565b60405180910390f35b73e592427a0aece92de3edee1f18e0157c0586156481565b60006040518061010001604052808773ffffffffffffffffffffffffffffffffffffffff1681526020018573ffffffffffffffffffffffffffffffffffffffff168152602001610bb862ffffff1681526020013073ffffffffffffffffffffffffffffffffffffffff168152602001603c62ffffff1642018152602001868152602001848152602001600073ffffffffffffffffffffffffffffffffffffffff1681525090508173ffffffffffffffffffffffffffffffffffffffff1663414bf389826040518263ffffffff1660e01b815260040161028a91906108a7565b602060405180830381600087803b1580156102a457600080fd5b505af11580156102b8573d6000803e3d6000fd5b505050506040513d601f19601f820116820180604052508101906102dc9190610636565b50505050505050565b73a0b86991c6218b36c1d19d4a2e9eb0ce3606eb4881565b600073b27308f9f90d607463bb33ea1bebb41c27ce5ab673ffffffffffffffffffffffffffffffffffffffff1663f7729d4373c02aaa39b223fe8d0a0e5c4f27ead9083c756cc273a0b86991c6218b36c1d19d4a2e9eb0ce3606eb48610bb88660006040518663ffffffff1660e01b815260040161037f959493929190610854565b602060405180830381600087803b15801561039957600080fd5b505af11580156103ad573d6000803e3d6000fd5b505050506040513d601f19601f820116820180604052508101906103d19190610636565b9050919050565b73c02aaa39b223fe8d0a0e5c4f27ead9083c756cc281565b60006040518061010001604052808773ffffffffffffffffffffffffffffffffffffffff1681526020018573ffffffffffffffffffffffffffffffffffffffff168152602001610bb862ffffff1681526020013073ffffffffffffffffffffffffffffffffffffffff168152602001603c62ffffff1642018152602001848152602001868152602001600073ffffffffffffffffffffffffffffffffffffffff1681525090508173ffffffffffffffffffffffffffffffffffffffff1663db3e2198826040518263ffffffff1660e01b81526004016104cf91906108c3565b602060405180830381600087803b1580156104e957600080fd5b505af11580156104fd573d6000803e3d6000fd5b505050506040513d601f19601f820116820180604052508101906105219190610636565b50505050505050565b73b27308f9f90d607463bb33ea1bebb41c27ce5ab681565b6000813590506105518161097b565b92915050565b60008135905061056681610992565b92915050565b60008135905061057b816109a9565b92915050565b600081519050610590816109a9565b92915050565b600080600080600060a086880312156105ae57600080fd5b60006105bc88828901610542565b95505060206105cd8882890161056c565b94505060406105de88828901610542565b93505060606105ef8882890161056c565b925050608061060088828901610557565b9150509295509295909350565b60006020828403121561061f57600080fd5b600061062d8482850161056c565b91505092915050565b60006020828403121561064857600080fd5b600061065684828501610581565b91505092915050565b610668816108fa565b82525050565b610677816108fa565b82525050565b610686816108fa565b82525050565b61069581610969565b82525050565b610100820160008201516106b2600085018261065f565b5060208201516106c5602085018261065f565b5060408201516106d860408501826107ee565b5060608201516106eb606085018261065f565b5060808201516106fe608085018261080c565b5060a082015161071160a085018261080c565b5060c082015161072460c085018261080c565b5060e082015161073760e08501826107df565b50505050565b61010082016000820151610754600085018261065f565b506020820151610767602085018261065f565b50604082015161077a60408501826107ee565b50606082015161078d606085018261065f565b5060808201516107a0608085018261080c565b5060a08201516107b360a085018261080c565b5060c08201516107c660c085018261080c565b5060e08201516107d960e08501826107df565b50505050565b6107e881610930565b82525050565b6107f781610950565b82525050565b61080681610950565b82525050565b6108158161095f565b82525050565b6108248161095f565b82525050565b6108338161095f565b82525050565b600060208201905061084e600083018461067d565b92915050565b600060a082019050610869600083018861066e565b610876602083018761066e565b61088360408301866107fd565b610890606083018561081b565b61089d608083018461068c565b9695505050505050565b6000610100820190506108bd600083018461069b565b92915050565b6000610100820190506108d9600083018461073d565b92915050565b60006020820190506108f4600083018461082a565b92915050565b600061090582610930565b9050919050565b6000610917826108fa565b9050919050565b6000610929826108fa565b9050919050565b600073ffffffffffffffffffffffffffffffffffffffff82169050919050565b600062ffffff82169050919050565b6000819050919050565b600061097482610930565b9050919050565b6109848161090c565b811461098f57600080fd5b50565b61099b8161091e565b81146109a657600080fd5b50565b6109b28161095f565b81146109bd57600080fd5b5056fea26469706673582212203a42f1e24ca64a773fa350d3d0d8d2d14250432791e4bb1549ca28bf1f4c81df64736f6c63430007060033",
  "immutableReferences": {},
  "source": "pragma solidity ^0.7.6;\npragma abicoder v2;\n\nimport {ISwapRouter} from \"@uniswap/v3-periphery/contracts/interfaces/ISwapRouter.sol\";\nimport {IQuoter} from \"@uniswap/v3-periphery/contracts/interfaces/IQuoter.sol\";\nimport \"@openzeppelin/contracts/token/ERC20/SafeERC20.sol\";\nimport './interfaces/IWETH9.sol';\n\nlibrary UniswapLib {\n  using SafeERC20 for IERC20;\n\n  uint24 private constant TRANSACTION_BUFFER_TIME = 60;\n  uint24 private constant FEE = 3000; // 0.3%\n\n  address public constant UNISWAP_V3_IQUOTER = 0xb27308f9F90D607463bb33eA1BeBb41C27CE5AB6;\n  address public constant UNISWAP_V3_ROUTER = 0xE592427A0AEce92De3Edee1F18E0157C05861564;\n  address public constant USDC = 0xA0b86991c6218b36c1d19D4a2e9Eb0cE3606eB48;\n  address public constant WETH = 0xC02aaA39b223FE8D0A0e5C4F27eAD9083C756Cc2;\n\n  function getWETHToUSDCquote(uint256 amountIn) public returns (uint256) {\n    return IQuoter(UNISWAP_V3_IQUOTER).quoteExactInputSingle(WETH, USDC, FEE, amountIn, 0);\n  }\n\n  function swapTokensExactInput(IERC20 tokenIn, uint256 amountIn, IERC20 tokenOut,\n                                uint256 amountOut, ISwapRouter router) public {\n    ISwapRouter.ExactInputSingleParams memory params = ISwapRouter.ExactInputSingleParams(\n      address(tokenIn),\n      address(tokenOut),\n      FEE,\n      address(this), // recipient\n      block.timestamp + TRANSACTION_BUFFER_TIME, // deadline\n      amountIn, // amountIn\n      amountOut, // amountOutMinimum\n      0 // sqrtPriceLimitX96. Ignore pool price limits\n    );\n    router.exactInputSingle(params);\n  }\n\n  function swapTokensExactOutput(IERC20 tokenIn, uint256 amountIn, IERC20 tokenOut,\n                                 uint256 amountOut, ISwapRouter router) public {\n    // For the sake of demo, setting the allowance to a big number for now.\n    ISwapRouter.ExactOutputSingleParams memory params = ISwapRouter.ExactOutputSingleParams(\n      address(tokenIn),\n      address(tokenOut),\n      FEE,\n      address(this), // recipient\n      block.timestamp + TRANSACTION_BUFFER_TIME, // deadline\n      amountOut, // amountOut\n      amountIn, // amountInMaximum\n      0 // sqrtPriceLimitX96. Ignore pool price limits\n    );\n    router.exactOutputSingle(params);\n  }\n}",
  "sourcePath": "/Users/daxili/coding/amm_check/contracts/UniswapLib.sol",
  "compiler": {
    "name": "solc",
    "version": "0.7.6+commit.7338295f.Emscripten.clang"
  },
  "schemaVersion": "3.4.2",
  "updatedAt": "2021-07-31T14:21:25.862Z",
  "networkType": "ethereum",
  "devdoc": {
    "kind": "dev",
    "methods": {},
    "version": 1
  },
  "userdoc": {
    "kind": "user",
    "methods": {},
    "version": 1
  }
}