{
  "contractName": "Verifier",
  "abi": [
    {
      "inputs": [
        {
          "internalType": "address",
          "name": "_enclave",
          "type": "address"
        }
      ],
      "stateMutability": "nonpayable",
      "type": "constructor"
    },
    {
      "inputs": [],
      "name": "enclave",
      "outputs": [
        {
          "internalType": "address",
          "name": "",
          "type": "address"
        }
      ],
      "stateMutability": "view",
      "type": "function",
      "constant": true
    },
    {
      "inputs": [
        {
          "internalType": "bytes32",
          "name": "_message",
          "type": "bytes32"
        },
        {
          "internalType": "bytes",
          "name": "_signature",
          "type": "bytes"
        }
      ],
      "name": "retrieveAddressFromSignature",
      "outputs": [
        {
          "internalType": "address",
          "name": "",
          "type": "address"
        }
      ],
      "stateMutability": "pure",
      "type": "function",
      "constant": true
    }
  ],
  "bytecode": "0x60a060405234801561001057600080fd5b5060405161032c38038061032c8339818101604052602081101561003357600080fd5b81019080805190602001909291905050508073ffffffffffffffffffffffffffffffffffffffff1660808173ffffffffffffffffffffffffffffffffffffffff1660601b815250505060805160601c6102936100996000398061023b52506102936000f3fe608060405234801561001057600080fd5b50600436106100365760003560e01c806350a109e41461003b578063dbb06c931461012a575b600080fd5b6100fe6004803603604081101561005157600080fd5b81019080803590602001909291908035906020019064010000000081111561007857600080fd5b82018360208201111561008a57600080fd5b803590602001918460018302840111640100000000831117156100ac57600080fd5b91908080601f016020809104026020016040519081016040528093929190818152602001838380828437600081840152601f19601f82011690508083019250505050505050919291929050505061015e565b604051808273ffffffffffffffffffffffffffffffffffffffff16815260200191505060405180910390f35b610132610239565b604051808273ffffffffffffffffffffffffffffffffffffffff16815260200191505060405180910390f35b6000806000806000604186511461017457600090505b6020860151935060408601519250606086015160001a9150601b8260ff16101561019f57601b820191505b601b8260ff16141580156101b75750601c8260ff1614155b156101c5576000905061022c565b60018783868660405160008152602001604052604051808581526020018460ff1681526020018381526020018281526020019450505050506020604051602081039080840390855afa15801561021f573d6000803e3d6000fd5b5050506020604051035190505b8094505050505092915050565b7f00000000000000000000000000000000000000000000000000000000000000008156fea264697066735822122093f285aa5bafbb8e6047b1f2ac380687a6c05cc8bc24d126fd00d84f0ffb806164736f6c63430007060033",
  "immutableReferences": {
    "1576": [
      {
        "length": 32,
        "start": 571
      }
    ]
  },
  "source": "// SPDX-License-Identifier: MIT\npragma solidity >=0.6.0;\n\ncontract Verifier {\n  address public immutable enclave;\n\n  constructor(address _enclave) {\n    enclave = _enclave;\n  }\n\n  function retrieveAddressFromSignature(bytes32 _message, bytes memory _signature) public pure returns(address) {\n    bytes32 r;\n    bytes32 s;\n    uint8 v;\n    address enclaveAddress;\n\n    // Check the signature length\n    if (_signature.length != 65) enclaveAddress = address(0); //return deliveryAddress\n\n    // Divide the signature in r, s and v variables\n    assembly {\n      r := mload(add(_signature, 0x20))\n      s := mload(add(_signature, 0x40))\n      v := byte(0, mload(add(_signature, 0x60)))\n    }\n\n    // Version of signature should be 27 or 28, but 0 and 1 are also possible versions\n    if (v < 27) v += 27;\n\n    // If the version is correct return the signer address\n    if (v != 27 && v != 28) enclaveAddress = address(0); //return\n    else enclaveAddress = ecrecover(_message, v, r, s); // return\n\n    return enclaveAddress;\n  }\n\n}",
  "sourcePath": "/Users/daxili/coding/amm_check/contracts/Verifier.sol",
  "compiler": {
    "name": "solc",
    "version": "0.7.6+commit.7338295f.Emscripten.clang"
  },
  "schemaVersion": "3.4.2",
  "updatedAt": "2021-07-31T12:22:25.143Z",
  "networkType": "ethereum",
  "devdoc": {
    "kind": "dev",
    "methods": {},
    "version": 1
  },
  "userdoc": {
    "kind": "user",
    "methods": {},
    "version": 1
  }
}